:020000040800F2
:10000000F0F500209502000875840008456C000892
:10001000718400087509000809D20008000000007A
:10002000000000000000000000000000A19D00088A
:100030008D1900080000000061870008ADA00008CD
:10004000AF020008AF020008AF020008AF020008CC
:10005000AF020008AF020008551B0008AF020008FD
:10006000AF0200085D1B0008651B0008AF02000816
:1000700091140008AF020008AF020008AF020008A8
:10008000AF020008AF020008AF020008AF0200088C
:1000900079090008AF020008AF0200086D1B0008D4
:1000A000AF020008AF020008AF020008AF0200086C
:1000B000A1A10008AF020008AF020008AF020008CB
:1000C000AF020008AF020008AF020008AF0200084C
:1000D000AF020008AF020008AF020008DDAB000865
:1000E000AF020008AF020008AF020008AF0200082C
:1000F000AF020008ADA10008AF020008AF0200087F
:10010000AF020008AF020008AF020008AF0200080B
:10011000AF020008AF020008AF020008AF020008FB
:10012000AF0200089D140008A91400085D1900081A
:10013000AF020008AF020008AF020008AF020008DB
:1001400085090008AF020008AF02000879850008A1
:10015000691900087519000881190008F9AD00082F
:10016000AF020008AF020008AF020008AF020008AB
:10017000AF020008AF020008AF0200080000000054
:10018000AF020008AF02000800F002F800F072F8B9
:1001900014A696E8000CB244B344DA4501D100F04D
:1001A00069F8BAE80F000FA696E83000A5EB040541
:1001B00004EB0607AAEB0704A7F101074FEA1515A0
:1001C0004FEA3414A4F10104AC4201D300F052F818
:1001D00013F0010F18BFFB1A43F0010300F001F800
:1001E000DBE71847A0730100C07301000A444FF019
:1001F000000C10F8013B13F0070408BF10F8014B86
:100200001D1108BF10F8015B641E05D010F8016BCA
:10021000641E01F8016BF9D113F0080F1EBF10F82E
:10022000014BAD1C0C1B09D16D1E58BF01F801CB51
:10023000FAD505E014F8016B01F8016B6D1EF9D5D4
:100240009142D6D37047000070470000002300247D
:1002500000250026103A28BF78C1FBD8520728BFD6
:1002600030C148BF0B6070471FB516F0B4F91FBD11
:1002700010B510BD00F083F91146FFF7F5FF0FF040
:10028000D9FE00F0A1F903B4FFF7F2FF03BC00F0C0
:10029000A5F900000948804709480047FEE7FEE746
:1002A000FEE7FEE7FEE7FEE7FEE7FEE7FEE7FEE726
:1002B00004480549054A064B704700008DA1000817
:1002C00089010008F0B50020F0F50020F0D50020ED
:1002D000F0D5002053EA020C00F069802DE9F04BC4
:1002E0004FF00006002B1FBFB3FA83F503FA05F4A5
:1002F00024FA05F65E4012BF1643B2FA82F502FAFE
:1003000005F4C5F120051EBF22FA05FC44EA0C04E1
:10031000203556EA044C4FEA144418BF641C4FF0D1
:1003200000084FF00009904271EB030C39D300290B
:1003300019BFB1FA81F701FA07F6B0FA80F700FAAF
:1003400007F6C7F120071EBF20FA07FC46EA0C0695
:100350002037B6FBF4FCA7EB0507103F07F01F0B97
:10036000CBF120062CFA06F60CFA0BFB44BFB34681
:100370000026202FA4BF5E464FF0000B5BEA060C60
:1003800008BF4FF0010B19EB0B0948EB0608ABFB5C
:10039000027C06FB02CC0BFB03CCC01B71EB0C01F7
:1003A000C1E70B46024641464846BDE8F08B13B50F
:1003B000084318BF4FF0FF300146AFF30080BDE89F
:1003C0001C40704710B5431C02E010F8011B71B1CE
:1003D0008107FAD14FF0013202C88C1A8C4314EA1B
:1003E000C211F9D0C01A0A0603D0C01E10BDC01A2F
:1003F00010BD0A0401D0801E10BD0902FCD0401EB1
:1004000010BD032A40F2308010F0030C00F015807C
:1004100011F8013BBCF1020F624498BF11F801CB07
:1004200000F8013B38BF11F8013BA2F1040298BF6C
:1004300000F801CB38BF00F8013B11F0030300F0D6
:100440002580083AC0F0088051F8043B083A51F87A
:1004500004CBA0E80810F5E7121D5CBF51F8043B7F
:1004600040F8043BAFF30080D20724BF11F8013BF2
:1004700011F801CB48BF11F8012B24BF00F8013B54
:1004800000F801CB48BF00F8012B704710B5203AA7
:10049000C0F00B80B1E81850A0E81850B1E818502F
:1004A000A0E81850203ABFF4F5AF5FEA027C24BF01
:1004B000B1E81850A0E8185044BF18C918C0BDE8EA
:1004C00010405FEA827C24BF51F8043B40F8043BB3
:1004D00008BF7047D20728BF31F8023B48BF11F868
:1004E000012B28BF20F8023B48BF00F8012B7047C2
:1004F00002F0FF0343EA032242EA024200F002B89C
:100500004FF0000200B5134694469646203922BFAC
:10051000A0E80C50A0E80C50B1F12001BFF4F7AFF7
:10052000090728BFA0E80C5048BF0CC05DF804EBD9
:10053000890028BF40F8042B08BF704748BF20F847
:10054000022B11F0804F18BF00F8012B7047704745
:100550007047704710B500F00DF8006810BD10B579
:10056000044600F007F8046010BD00000048704722
:10057000E801002000487047E801002070477546F8
:10058000FFF7F4FFAE4605006946534620F007002A
:10059000854618B020B5FFF78BFEBDE820404FF030
:1005A00000064FF000074FF000084FF0000BAC467C
:1005B000ACE8C009ACE8C009ACE8C009ACE8C009C7
:1005C00021F007018D46704710B50446AFF3008057
:1005D0002046BDE81040FFF756BE00000149182034
:1005E000ABBEFEE72600020013F032BC13F0C6BC1F
:1005F0000DF0E4B900281CBF002101607047000025
:1006000000281EBF0021C4F2B01101607047000035
:10061000B1EEC00AB7EE001A81EE000A7047000082
:100620000DF016BA0020C4F202001021012202F0DF
:10063000C7BE00000020C4F202001021002202F018
:10064000BFBE00007047000040F20040C4F202004C
:100650000121012202F0B4BE40F20040C4F20200C7
:100660000121002202F0ACBEB0F9003040F2B00C23
:10067000C2F2000C00EE103A9CED001AB8EEC00A6F
:1006800021EE000A81ED000AB0F902309CED001A5B
:1006900000EE103AB8EEC00A21EE000A81ED010A20
:1006A000B0F9043000EE103AB8EEC00A21EE000AAC
:1006B00081ED020AC3798179007A1B0243EA004086
:1006C000084400EE100A9FED041AB8EE400A20EE2E
:1006D000010A82ED000A704700401C42704700008A
:1006E0000FF024BD0EF046BBB0F9002000EE102A3A
:1006F00040F2B002C2F2000292ED011AB8EEC00A56
:1007000021EE000A81ED000AB0F9023092ED011AE3
:1007100000EE103AB8EEC00A21EE000A81ED010A9F
:10072000B0F9040000EE100AB8EEC00A21EE000A8B
:1007300081ED020A7047000010B5FFF783FFFFF755
:10074000CDFF0DF019FB08B1802402E00DF0C6F9D1
:1007500004460DF047FE00281CBF44F0400010BDC9
:100760000DF036FD204310BD2DE9F04F83B002920D
:100770000E460190FFF75EFF922000F0C5F8922030
:1007800000F0C2F8552000F0BFF88046552000F078
:10079000BBF88346552000F0B7F88246552000F09C
:1007A000B3F80446552000F0AFF80746552000F096
:1007B000ABF80546FFF736FF48EA0B2040F2B009D8
:1007C00000B2C2F2000900EE100A99ED001AB8EE6C
:1007D000C00A4AEA042021EE000A00B286ED000AAF
:1007E00000EE100A47EA052000B299ED001A02EE69
:1007F000100AB8EEC00AB8EEC22A21EE000A21EEB5
:10080000021A86ED010A86ED021AFFF725FF802005
:1008100000F07AF8552000F077F80646552000F0F1
:1008200073F8552000F070F88246552000F06CF8FF
:100830000546552000F068F88346552000F064F81E
:100840000446552000F060F80746552000F05CF89B
:100850008046FFF7F9FE0F2E25D14AEA052000B2A7
:1008600000EE100A99ED011AB8EEC00A01994BEAA0
:10087000042021EE000A00B281ED000A00EE100A09
:1008800047EA082000B299ED011A02EE100AB8EE0C
:10089000C00AB8EEC22A21EE000A21EE021A81ED4A
:1008A000010A81ED021AFFF7C5FEA22000F02CF824
:1008B000A22000F029F8552000F026F80446552023
:1008C00000F022F80546FFF7ADFEE00040EA5511C2
:1008D0004FF600020023CFF6FF72B3EB902F18BF44
:1008E000114300EE101AB8EEC00AB4EE001A20EE62
:1008F000010AB3EE071A029830EE010A80ED000AF1
:1009000003B0BDE8F08F000080B582B08DF807001D
:1009100043F6AC004FF47A7CC2F200000DF10701FF
:100920000DF106020123CDF800C004F0A5FD9DF8ED
:10093000060002B080BD000002784078D20042EA92
:1009400050104FF6000C0023CFF6FF7CB3EB922F34
:1009500018BF40EA0C0000EE100AB8EEC00AB4EE70
:10096000001A20EE010AB3EE071A30EE010A81EDFB
:10097000000A7047FEE7000042F6B430C2F2000001
:1009800001F0EEBD42F6DC30C2F2000001F0E8BD3D
:1009900080B582B09FED202A40F2B82220EE020AF4
:1009A000BDEEC00AC2F2000210EE100A20EE820A6A
:1009B00002F8010F000ABDEEC00A507010EE100AD6
:1009C00021EE020A9070000ABDEEC00AD07010EE4F
:1009D000100A21EE820A1071000ABDEEC00A5071A1
:1009E00010EE100A4FF4A07311469071000A41F8FE
:1009F0001F3F0023D07142F6DC304FF0080CC2F8E4
:100A00002730C2F82B30C2F2000001ABC2F82FC071
:100A100001F046FC02B080BD0000C84200207047D3
:100A20000020704710B542F6D804C2F2000441F627
:100A30009441C2F20001204600220AF003FC41F278
:100A40009441C2F2000120460AF0EEFB002010BDE6
:100A500070B542F6D80549F61C66C2F20005C2F22E
:100A600000060C46284631460AF0DEFB28460AF00E
:100A7000B5FB20680121A6F80008002086F80218BE
:100A800070BD00000020704742F6D802C2F200029A
:100A9000D2F8BC22D2F81432002B1CBF01207047C0
:100AA00010B542F6D804C2F200040A4601462046B8
:100AB0000AF0C8FB2046BDE810400AF041BC000027
:100AC00051B110B546F6101E01F0030C0429C0F612
:100AD000010E05D2FF211FE0FF21C8B2704700BF01
:100AE00021F00303FF2100BF10F8042BC9B25140CD
:100AF00010F8034C1EF8011010F8022C61401EF88B
:100B0000011010F8014C51401EF80110043B81EA1D
:100B100004011EF80110E7D1BCF1000F13D00278D8
:100B2000BCF1010F81EA02011EF801100BD04278DE
:100B3000BCF1020F81EA02011EF8011003D0807897
:100B400048401EF80010BDE81040C8B270470000D1
:100B500000284FF000024CD003294AD370B5A1F110
:100B6000010E0239032946F610110EF0030CC0F6EF
:100B7000010107D2FF2400230246BCF1000F1FD160
:100B80002FE000BF2EF00304FF23024612F8045B9F
:100B9000043C83EA050312F8036CCB5C12F8025C98
:100BA00083EA0603CB5C12F8016C83EA0503CB5C95
:100BB00083EA0603CB5CE9D11C46BCF1000F10D0E0
:100BC0001378BCF1010F83EA0403CB5C09D054789D
:100BD000BCF1020F83EA0403CB5C02D092785A4046
:100BE0008B5C10F80E00181AB0FA80F04209BDE8CC
:100BF000704010467047000000284FF6FF7318BF82
:100C0000002901D198B27047B0B54A1E46F61025AA
:100C100001F0030C032AC0F6010527D321F00301DC
:100C200010F8042B043982EA0302D2B235F81220FC
:100C300010F8034C82EA132383EA0403DBB235F88D
:100C4000133010F8024C83EA122282EA0402D2B274
:100C500035F8122010F8014C82EA132383EA0403CA
:100C6000DBB235F8133083EA1223D9D1BCF1000F7F
:100C70001BD001789AB25940C9B235F81110BCF1B5
:100C8000010F81EA122310D04278DBB25A4035F8C6
:100C900012E0BCF1020F8EEA112306D08078D9B29F
:100CA000484035F8100080EA1E23BDE8B04098B2F5
:100CB0007047000000284FF0000272D0032970D363
:100CC000F0B5CA1EA1F1020C032A46F610224FF617
:100CD000FF730CF0030EC0F6010201D2044629E0B6
:100CE0002CF00306044600BF14F8045B043E85EABA
:100CF0000305EDB232F8155014F8037C85EA13238E
:100D000083EA0703DBB232F8133014F8027C83EA7B
:100D1000152585EA0705EDB232F8157014F8015C67
:100D200087EA132383EA0503DBB232F8135085EA1E
:100D30001723D9D1BEF1000F15D02578BEF1010FD0
:100D400085EA0305EDB232F8155085EA13230AD07F
:100D50006678DBB2734032F81360BEF1020F86EAA8
:100D600015230FD1354610F80C20DBB29A4215D16D
:100D7000084410F8010CA9B2A0EB1120B0FA80F0E1
:100D800042090CE0A778DBB27B4032F8135085EAC9
:100D9000162310F80C20DBB29A42E9D00022BDE8FD
:100DA000F0401046704700008CB0C8204FF6CF7856
:100DB00011F0E0FC42F2944B4CF2000040F2383566
:100DC0009FEDA69A9FEDA68AC2F2000BC4F2EE60D8
:100DD000C2F20005CBF86000281DB0EE490AF0EE23
:100DE000480A06F0DBFD05F12800B0EE490AF0EEF6
:100DF000480A06F0D3FD05F14C00B0EE490AF0EECA
:100E0000480A06F0CBFD0EF045F99FED960A9FEDDE
:100E1000969ADFED961A0BF118000021F0EE490AC0
:100E2000B0EE401AB0EE492A002507F085FC40F2EA
:100E3000C83AC2F2000ABAF8140040F2904608F12B
:100E4000270140F208549FED8AAA9FED8ABA9FEDD0
:100E50008ACB9FED8BDA9FED8BEA9FED8BFAC2F286
:100E600000060FFA81F9C2F2000448F22007CDF81B
:100E700000901EE00DF0E4FB0EF078F870896168D8
:100E800000EE100A208900EE901A01EE100AB8EE6A
:100E9000400AB8EE411AF0EE491AFFF779FD022038
:100EA00011F068FCBAF8140000EA0701B94200F03A
:100EB0004982B8B3C104CBE90055CBF810506FD4C8
:100EC000810500F1B98040F23831C2F200010978A1
:100ED000B0EE490A022905D80FF2A85202EB8101AF
:100EE00091ED000AC10718BF8BED000A810744BFCE
:100EF000B1EE401A8BED001A410748BF8BED010A95
:100F0000010744BFB1EE401A8BED011AC10648BF7C
:100F10008BED040A800442BF0020C4F2A540CBF848
:100F20000000E5E09AF80B007289012818BF4FF025
:100F3000FF30642A48D3BAF906201346002A48BF76
:100F40005342BAF90410312B4FF0000302EB420276
:100F500088BF930000EE103AB8EEC00A0A468BED47
:100F6000000A002948BF4A42A1EB8101312A4FF013
:100F7000000288BF8A00BAF8081000EE102AB8EE06
:100F8000C00A0AB28BED010A4A45B0EE490A80F266
:100F9000AD80414528BF294600EB80009EE000BFA0
:100FA00048F2000110F00C0FC4F2F751CBF800101A
:100FB00000F09E8000070FF2BC4058BF043000686C
:100FC000CBF8040094E000BFBAF9061000290B46E4
:100FD00048BF4B42502A59D301EB81010022312BEB
:100FE00088BF4A00BAF9041000EE102AB8EEC00A11
:100FF0000A468BED000A002948BF4A4201EB8101F5
:101000004942312A4FF0000288BF4A00BAF808105E
:1010100000EE102AB8EEC00A0AB28BED010A4A456A
:10102000B0EE490A62DA40B2414528BF294610FBBA
:1010300001F0C00056E000BF002110F00C0FC4F218
:10104000A541CBF8001053D000070FF2304058BF35
:1010500004300068CBF804004AE000BFCDCCCC3DA2
:101060000000C84200409C450000000000401C46B3
:1010700000E0AB469A99193E000000403333C33F6D
:1010800000007A470000FA45000070420022312B30
:1010900088BFCA00BAF9041000EE102AB8EEC00AE0
:1010A0000A468BED000A002948BF4A42312A4FF018
:1010B000000288BFA2EBC102BAF8081000EE102AA5
:1010C000B8EEC00A0AB28BED010A4A45B0EE490AF1
:1010D0000CDA00EB4000414528BF2946400040B2F1
:1010E00010FB01F000EE100AB8EEC00A8BED040A06
:1010F0000DF01EFC0EF012FB0EF0DCF89AF80B005F
:10110000022803D10DF0FEFEB8E600BFBAF81400C5
:10111000C0043FF5B1AE40F2C420C2F2000090ED31
:10112000000AB5EE400AF1EE10FA7FF4A3AE708922
:10113000029000EE100A42F6AC60C2F20000D0ED60
:101140006CAAB8EE400AD0ED22BA20EE0A0AD0ED21
:10115000B69A1AEE900AC0EE088AB0EEEB0A20F0BA
:10116000004060EE0BDA15F09BF906461DEE900A82
:101170000F4615F095F958EC1C9B04460D46304679
:1011800039464A46434614F091FE22462B4614F057
:1011900099FB14F065FB044619EE900A20F000401C
:1011A00015F07EF9054620460E4615F079F90446FD
:1011B0000F46284631464A46434614F077FE2246FB
:1011C0003B4614F07FFB14F04BFB42F6AC61C2F2DD
:1011D000000101F58061D1ED00DA04461DEE900AB0
:1011E00020F00040019115F05BF9054620460E46BF
:1011F00015F056F904460F46284631464A464346FE
:1012000014F054FE22463B4614F05CFB14F028FB1D
:10121000029A04EE100A002AB4EE4E4A08BFF0EE1D
:101220004D8AF1EE10FA29DD8EEE040A42F6AC6129
:10123000C2F20001019840F29046DDF8009040F2C1
:101240000854B0EE4E4A4FF6CF780025C2F20006A1
:10125000C2F2000448F220072BEE801A81ED221A18
:101260002AEE801A81ED6C1A29EE801A2DEE800A82
:1012700081EDB61A80ED000A13E000BF40F29046FF
:10128000DDF8009040F2085442F6AC614FF6CF789A
:101290000025C2F20006C2F2000448F22007C2F2A2
:1012A000000191ED342A91ED7E1A91EDC80AB0EE5D
:1012B000C23AB0EEC15A01F5896033EE055A90ED9D
:1012C000003AB0EEC06A35EE065AB0EEC36A35EEAB
:1012D000065A38EEC44AB4EE445AF1EE10FA11DD63
:1012E00084EE054A22EE042A21EE041A20EE040AB6
:1012F00023EE043A81ED342A81ED7E1A81EDC80A8D
:1013000080ED003A002A3FF4B7AD218904EE101AAF
:10131000B8EE444A84EE0F4A42F6AC61C2F20001D4
:1013200020EE040A22EE042A21EE041A81EDC80AF6
:1013300023EE040A81ED342A81ED7E1A80ED000A45
:101340009AE500BF42F6B43540F24110C2F2000502
:1013500000244FF09B0806904FF0080906A904AA44
:1013600003AB28460B94CDE90944CDE90744059425
:10137000CDE90348CDF82890CDF8114000F090FF5A
:101380004FF4A17006AF04AE069003AB2846394671
:1013900032460B94CDE90944CDE907440594CDE9E3
:1013A0000348CDF82890CDF8114000F079FF06F100
:1013B000010B40F2602A42F6B43607F10409C2F28A
:1013C000000AC2F200063FE09B20CDE9034040F254
:1013D00041100690082006AF0DF1100803ADC9E9D1
:1013E0000244C9F810400A903046394642462B461E
:1013F000C9E900440594CDE90844CBF80040CBF896
:10140000034000F04DFF012011F0B4F99B20CDE91D
:1014100003404FF4A17006900820C9E90244C9F8BE
:1014200010400A903046394642462B46C9E90044EE
:101430000594CDE90844CBF80040CBF8034000F018
:101440002FFF012011F096F99AF800000028BBD078
:101450009AF806000028B7D09AF804000028B3D103
:101460009AF80A000028AFD1EFF3108072B60CF0A2
:101470006DF800BF000025C4000025440000A5C48D
:101480000000A544008077450000A5450040CE45FA
:1014900042F68C50C2F2000001F048BC42F6EC501B
:1014A000C2F2000001F042BCAFF30080B0B543F6D9
:1014B000AC00C2F20000C16C46F2A040C4F20200CF
:1014C0000968A0F14802914226D946F29F0350F8DC
:1014D0009C2CC4F2020399424FF020036CDD46F2CB
:1014E0003F45C4F20205A94200F3808046F2A00500
:1014F000C4F20205A94200F0AF8046F21045C4F2E2
:101500000205A94200F0D58046F22843C4F2020346
:10151000994200F0CC808BE146F25802C4F20202FC
:1015200002F16003994223D946F29F03D2F8A8231F
:10153000C4F2020399424FF0200340F3938046F235
:101540003F45C4F20205A94200F3D68046F2A00549
:10155000C4F20205A94200F0F78046F21045C4F239
:101560000205A94200F03E8146F2284334E100BF63
:1015700046F29F059142C4F202054FD952F854CC6D
:10158000A9424FF020044FDC46F23F05C4F20205A9
:10159000A94240F3E58046F24005C4F20205A942A3
:1015A00000F0D88046F27005C4F20205A94200F0AE
:1015B000E68046F28805DBE046F23F05C4F202050C
:1015C000A94267DD46F24005C4F20205A94243D0B4
:1015D00046F27005C4F20205A9426AD046F28803B9
:1015E000C4F20203994214D022E100BF46F2404502
:1015F000C4F20205A9422FD046F27045C4F202059A
:10160000A94256D046F28843C4F20203994240F000
:101610000F814FF4006313424ED140E152F858CC91
:10162000A9424FF02004AFDD46F23F45C4F2020567
:10163000A94279DC46F2A005C4F20205A94200F0F5
:10164000898046F21045C4F20205A94200F0978055
:1016500046F228458CE000BF4FF4001313422BD113
:101660001DE100BF46F23F05C4F20205A94240F366
:10167000AB8046F24005C4F20205A94264D046F2AE
:101680007005C4F20205A94200F0AC8046F288035E
:1016900040E000BF46F21005C4F20205A94208D09E
:1016A00046F22803C4F20203994240F0C1804FF48D
:1016B0000063134200F0F38046F27042C4F202026B
:1016C00091420BD046F28842C4F20202914209D103
:1016D0004FF4006240F8942CF2E000BF202240F862
:1016E000942CEDE04FF00062814208BF4FF40012ED
:1016F00040F8942CE4E000BF46F24045C4F20205F5
:10170000A94221D046F27045C4F20205A94269D02F
:1017100046F28843C4F20203994240F0AB804FF492
:101720000063134260D1BAE046F24045C4F20205BC
:10173000A9420FD046F27045C4F20205A9421ED05C
:1017400046F2884514E000BF4FF4001313424BD11A
:10175000A5E000BF4FF4001404EA0C05A5B99EE013
:1017600046F21005C4F20205A94208D046F2280547
:10177000C4F20205A94240F087804FF4006404EAF5
:101780000C05002D00F08B8099422DD8914259D93B
:1017900046F27000C4F20200814200F0818046F2FD
:1017A0008800C4F20200814200F07E8046F2A00070
:1017B000C4F2020081420CBF4FF400104FF00060F1
:1017C00042F84C0C7CE000BF46F21005C4F2020562
:1017D000A94207D046F22803C4F20203994249D134
:1017E0004FF4006313425AD046F21042C4F2020290
:1017F000914219D046F22842C4F2020291420DD021
:1018000046F24042C4F2020291420CBF4FF4001172
:101810004FF0006140F8981C52E000BF4FF40061A7
:1018200040F8981C4CE000BF202140F8981C47E08D
:101830004FF00063814208BF4FF4001313427FF45E
:101840003BAF2CE046F21000C4F20200814231D0DE
:1018500046F22800C4F2020081422DD046F2400038
:10186000C4F2020081420CBF4FF400104FF0006040
:1018700024E000BF4FF00063814208BF4FF4001323
:101880001342B1D10BE000BF4FF00064814208BFAA
:101890004FF4001404EA0C05002D7FF475AFB0BDC1
:1018A000202042F84C0C0BE04FF4006042F84C0C46
:1018B00006E000BF202001E04FF4006042F8500C29
:1018C00040F25C55C2F20005287800248007C4F27B
:1018D000020421D4687880072FD4A87880070CD51B
:1018E000A878102100F0FD00A870A878012240F02F
:1018F0000400A870204601F063FD0EF049F9287835
:10190000400758BFB0BD43F61040C4F20100016863
:1019100041F001010160B0BD2878012100F0FD0017
:1019200028702878012240F00400287004F58060B7
:1019300001F046FD68788007CFD56878102100F067
:10194000FD0068706878012240F00400687020464D
:1019500001F036FDA8788007C2D4CEE742F66C408D
:10196000C2F2000001F0E2B942F6CC40C2F200003F
:1019700001F0DCB942F64C60C2F2000001F0D6B9C9
:1019800042F62C50C2F2000001F0D0B970470000BE
:101990002DE9F0412DED028B40F29040C2F20000A3
:1019A000007B40F2F44743F66C564007C2F2000752
:1019B000C2F2000662D5B6F9140001B280EAE13243
:1019C000A2EBE13189B242F6E162914256D396ED43
:1019D000000A9FED5C1AB0EEC00AB4EE410AF1EEC7
:1019E00010FA4BDAB96801316529B96046D340F67F
:1019F000B83100284FF0C800C4BF4FF24841CFF6BD
:101A0000FF71B18210F0B6FE9FED508A06F1180406
:101A100046F664429FED4C0A4FF00008C0F6010202
:101A200020460121F0EE480AA6F81480C6E9008895
:101A3000C6E90288C6F8108006F066FE06F1600569
:101A400046F65842C0F6010228460021B0EE480A88
:101A5000F0EE480A06F058FE204606F04BFE2846F7
:101A600006F048FE40F25420C2F2000090ED000A59
:101A7000C7F80880B8EEC00A86ED030A3878DFEDB3
:101A8000340A01284AD17878B0B1B878012808D151
:101A9000F888013081B23329F88022BF0020B87065
:101AA000F88096ED020AD6ED030A06F1600006F012
:101AB00069FDD6ED200A31E040F2C830C2F20000E4
:101AC000C17C39B9B0F90800B0F5967F02DAB7F9F0
:101AD00004001FE042F2E060C2F2000090ED3C0A18
:101AE000B7EE001AB0EEC00AB4EE410AF1EE10FAF9
:101AF00014DC43F6C831C2F20001B7F90400097CD6
:101B0000484346F26761C6F2666150FB01F08110FE
:101B100001EBD07000EE100AF8EEC00A96ED000A54
:101B200006F11800C6ED010A06F02CFD96ED0E0A2E
:101B3000BDEEC00A10EE100AB082BDEC028BBDE80B
:101B4000F08100BF0000C84200007A4600401C46F9
:101B500000000000012001F04FBB0000082001F050
:101B60004BBB0000102001F047BB0000202001F01B
:101B700043BB000082B043F66C2AC2F2000A504612
:101B800004216FF00A0904F00DFB5046082104F00F
:101B900009FB40F2AC06C2F2000640F20057707832
:101BA000F178DAF80020C2F2000743F66C5540F2F3
:101BB000C8349FED738A387079709163D06340F2B6
:101BC0000150C2F20005C2F200044FF0140B4FF4B2
:101BD000A068788011E000BF87F804B03078B17851
:101BE00038707970A7F80280DAF80020C9B2C0B264
:101BF0009163D0630A2010F0BDFD387900281ABF28
:101C0000411E3971002195ED010AB5EE400AF1EE51
:101C100010FA0AD095ED000AB0EEC00AB4EE480AF8
:101C2000F1EE10FAC4BF05213971E07A00F0FD0031
:101C300001281CBF0A213971A07A0228CCD0A08AC1
:101C4000C205C9D40906C9D1B4F900100A2913DCA8
:101C5000B4F90C200B2A0FDA09F101039942A8BF4D
:101C60009A420FDA3078F17814303870143140F23B
:101C7000015279707A80B7E77078B178143838708B
:101C80001439AEE7B4F906100A29A7DCC207A5D1BA
:101C900049451DDD10F002011AD141071CD4B4F9E9
:101CA00004100B2918DA000720D449451EDDFA7804
:101CB00032B33078717896F802C0F37808440CEBB0
:101CC000030140084908013A38707970FA708BE7CF
:101CD0007078F1783870CAE730787178B278F37834
:101CE00008444008D118387049087AE7307871788C
:101CF000B278F37808444008D11838704908B6E73C
:101D0000BA7838787978012A1CD0002A7FF46CAF31
:101D100073780130F2789842A1F1010128BF18468A
:101D200091423870D8BF1146834279707FF45CAF1E
:101D30009446CAB294457FF457AF01206246B8700A
:101D400002E000BF0A46034696F800E0581E96F8E7
:101D500002C07045D8BF7046C1B20191531C6146A4
:101D60003870634538BF1946019A797096457FF4FB
:101D70003BAF634522BF0020B870704634E700BF18
:101D800000007A44EFF3108072B600BFFEE7000057
:101D90008AB042F2E068C2F2000840462221FEF713
:101DA000AFFB08F1FC002221FEF7AAFB9FED3E8A63
:101DB00046F64C429FED3D0A08F12400C0F60102B0
:101DC0000021F0EE480A002606F09EFC46F634425A
:101DD0009FED370ADFED370A08F16C00C0F601020B
:101DE000002106F091FC9FED349A46F640429FEDAB
:101DF000330A08F1B400C0F601020021F0EE490AEE
:101E000006F082FC46F628429FED2D0A08F59070F8
:101E1000C0F601020021F0EE480A06F075FC9FEDC5
:101E2000298A46F6104208F5B470C0F60102002176
:101E3000B0EE480AF0EE490A06F066FC46F61C428F
:101E400008F5D870C0F601020021B0EE480AF0EEA5
:101E5000490A06F059FC40F2C831C2F200010220E2
:101E6000C872C82010F086FC04A8071D02A8DFED88
:101E7000EECA9FEDEE9A9FEDEEAA9FEDEEBA9FEDB2
:101E8000EECA9FEDEEDA9FEDEEFADFEDEEDADFED72
:101E9000F59ADFEDF5AA9FEDE0EB9FEDE18B0230C7
:101EA000FBEE07BA009076E0000048430000FA44D9
:101EB00000001644000000000000C84200009644E4
:101EC0000080BB4400009643B8F8200040F2411166
:101ED00042F6B43B0396049108218DF80C00000AE9
:101EE000C2F2000B0DF1100A0DF10809C7E90266F4
:101EF0003E61A12408918DF80D00584651464A468E
:101F000001ABC7E90066CDE9016407961D4600F004
:101F1000C7F9012010F02EFCB8F81C0103964FF40D
:101F2000A1718DF80C00000ACDE901640491082428
:101F30008DF80D00584651464A462B46C7E90066C3
:101F4000C7E902663E610796089400F0A9F90120EE
:101F500010F010FC43F66C50C2F20000808A40F290
:101F6000FF110491010A8DF8090000988DF80810FE
:101F70000660868058465146C7E90066C7E9026692
:101F80003E610196CDE907644A462B4600F088F988
:101F9000012010F0EFFB40F22C63C2F2000340F28C
:101FA000882593ED070AC2F20005288820EE2C0A46
:101FB00088ED000A00EE100A42F29440C2F20000DE
:101FC00090ED191AB8EE400A88ED040AB0EEC10A85
:101FD00040F2C451B4EE4D0AB0EE401AC2F2000114
:101FE000F1EE10FA30EE0C2AC8BFB0EE421A0868C3
:101FF0006A68C8F8080098698968C8F8FC00288AE7
:10200000C8F8142002EE100AB8EE422A22EE092A7D
:102010006A6922EE0A2AB4EE4F1A72EE0BFAF1EE5A
:1020200010FAC8F8041188ED432AC8F81021C8ED49
:1020300045FA06DDB4EE6D1AF1EE10FAB0EE6B1A49
:102040003CDB9FED821AB4EE410AF1EE10FA08DD96
:102050009FED7F1AB4EE410A9FED7B1AF1EE10FA64
:102060002CDBB0EE041AB4EE410A9FED7A1AF1EEC1
:1020700010FA23DD9FED781AB4EE410A9FED751A30
:10208000F1EE10FA1ADA9FED751A9FED752A20EE1F
:10209000011A20EE022A21EE000A30EE020A10EEAA
:1020A000100A14F0FDF99FED5A0B53EC102B13F0AE
:1020B00009FC13F0D5FB01EE100A00BF40F2F02539
:1020C000C2F200052FEEA90A85ED041A0BF076FC8A
:1020D00040F2B41020EE2A0AC2F2000080ED000A9D
:1020E0000BF094F806F06EFBB8F91C0113F03CFEFF
:1020F00053EC1E2BDA0FB5F8069062F3DF7153EC48
:10210000182B14F00DFA28B9B9F1000F12D04FF6C0
:10211000FF7000E00120484481B241F288329142D0
:1021200040F2F021C2F20001C88024BFD8F80401B7
:10213000C8F8080140F2C830C2F20000C07A022894
:102140007FF4C2AE40F2411042F6B43A0490082047
:10215000C2F2000A0DF10809C7E902663E614FF0BC
:10216000A10B0890504604A94A4601ABC7E9006696
:102170000396CDE9016B079608241D4600F090F800
:10218000012010F0F7FA40F2B410C2F2000090ED16
:10219000000A9FED361AC7E9026620EE010ABDEE7D
:1021A000C00A10EE100A3E6103964FF4A171CDE90A
:1021B00007648DF80C00000A04AC04918DF80D0042
:1021C000504621464A462B46C7E90066CDE9016BD9
:1021D0004FF0080B00F064F8D8F80800D8F80411A4
:1021E000C8F80C000120C8F8081110F0C3FA40F23A
:1021F000FF10C7E90066C7E902663E6101960490D8
:10220000CDE9076BCDE9026650462146BCE600BF2A
:10221000F4FDD478E9DE5440000000000000000026
:102220000000000000709740E12E654200008037FA
:102230000000B44300009FC3DB0FC9BFDB0FC93FE1
:10224000F0BD103FE3B0803F0000ACC10E439C3FA7
:10225000A8DCF53F0000E4C1DB0F4940B07230411B
:102260002B078BC24DF38E3C00007A433333333F50
:1022700090F82020013A012A08D8006800F11402E1
:102280000020136819431160704700BF00F1240259
:1022900001204FF48021136819431160704700003A
:1022A00010B590F820E0D0F800C0AEF1010EBEF1FC
:1022B000010FDCF808E011D81EF0E05F18D0CEF373
:1022C000016EBEF1030F1DD100F1240101204FF476
:1022D00000020B681A430A6010BD00BF00F1240120
:1022E00001204FF480220B681A430A6010BD00BF22
:1022F00000F1240101204FF400120B681A430A6018
:1023000010BD00BF012000FA0EF01860886828B1E7
:102310004B68CC6844EAC303034303E00868CB6816
:1023200043EA40530CEB0E10C0F880310B69C0F843
:102330008431097D012905D100F5C2710B6843F490
:1023400080730B605168C0F88C11126800F5C07181
:10235000C0F88821002001220B681A430A6010BDD2
:1023600090F82020013A012A30D8B0B546F200603A
:10237000C4F20000026842F001020260026822F426
:102380007C520260D1F814E0CC694A6A0368012CDF
:1023900043EA022202600EF01F024FF0010303FA2B
:1023A00002F2C3696FEA020C23EA0203C36113D08D
:1023B0002CBBC36803EA0C03C360CB688C8844EA77
:1023C000034300EBCE0423640B4611E0416A41F461
:1023D0008021416201207047C3681343C3600B68CA
:1023E0008C8844EA034300EBCE04236401F10C0320
:1023F0008C681B8843EA044300EBCE0463644368A3
:102400008D6943EA0204D1F810E0096A002D08BF83
:1024100003EA0C0444604369BEF1000F43EA02047E
:1024200008BF03EA0C040129446102D1C1691143C8
:10243000C161016821F0010101600020B0BD000010
:102440007047000010B590F82040013C012C73D873
:10245000D0F800C000290CBFDCF80C40DCF81040BC
:10246000A40773D00CEB011CDCF8B0410CF5D87E4E
:1024700014F004049460DCF8B04119BFE40854601F
:10248000640D1460DEF80040002904F00204D460FA
:10249000DCF8B44104F00F041461DCF8B441C4F377
:1024A00007249461DCF8B4414FEA14445461DCF829
:1024B000B8211A70026802EB0112D2F8B8214FEA73
:1024C00012225A70026802EB0112D2F8B8214FEAC8
:1024D00012429A70026802EB0112D2F8B8214FEA58
:1024E0001262DA70026802EB0112D2F8BC211A7192
:1024F000026802EB0112D2F8BC214FEA12225A7193
:10250000026802EB0112D2F8BC214FEA12429A7122
:10251000026802EB0112D2F8BC214FEA1262DA71B2
:1025200000680CBF00F10C0100F110010020202216
:102530000B681A430A6010BD00F1240101204FF41A
:1025400080220B681A430A6010BD00BF00F124010D
:1025500001204FF400120B681A430A6010BD0000FE
:102560002DE9F04F81B0044600684669D0F8049028
:102570008768D0F80CB0D0F810A0D0F81880F10718
:1025800004D1002530071DD424E000BFF90710D086
:102590000121BA07816009D4780700F1AF803807BC
:1025A00000F1B680204600F02BFB02E0204600F050
:1025B00029FB0025F80500F18780F80300F1B180C0
:1025C000300707D51BF0100004D0206845F40075D3
:1025D0001021C160700708D51BF0080005D02068E5
:1025E0000821C160204600F0F5F9B00706D5206843
:1025F000C068800702D0204600F0EEF9700607D5CB
:102600001AF0100004D0206845F4806510210161A3
:10261000B00608D51AF0080005D02068082101612D
:10262000204600F0B9FAF00606D520680069800758
:1026300002D0204600F0B2FAB00308D519F010001D
:1026400005D0206810214160204600F0A9FAF0036F
:1026500008D519F0080005D02068082141602046FF
:1026600000F0DAFA300440F19B805FEA497040F1F3
:10267000948006F4807008EA102028435FEA88718D
:10268000014648BF41F00201B20558BF01465FEA6A
:1026900048700D4648BF45F00405700558BF0D460B
:1026A000300540F17A8018F0700000F07680103824
:1026B000000905286CD8DFE800F003595D61656901
:1026C00045F0080564E000BF20684FF48071BA054A
:1026D00081600BD4780515D438051DD4204600F050
:1026E00093FAF8037FF56CAF1BE000BF204600F0C3
:1026F0008DFAF8037FF564AF13E000BF4FF4006577
:1027000058E700BF05F50055F8037FF559AF08E01D
:102710004FF480554EE700BF05F58045F8037FF57F
:102720004FAF20684FF48031BA0381600AD4780338
:1027300010D4380314D4204600F06AFA30073FF56D
:1027400041AF47E7204600F065FA30073FF53AAF62
:1027500040E700BF05F5004530073FF533AF39E7E7
:1027600005F5803530073FF52DAF33E745F010050F
:102770000EE000BF45F020050AE000BF45F040052F
:1027800006E000BF45F0800502E000BF45F480751B
:102790002068816921F07001816120680421416015
:1027A00055B1606A40EA05012046616201B0BDE8AA
:1027B000F04FFFF745BE00BF01B0BDE8F08F00004D
:1027C000002804BF01207047B0B5044690F82000EF
:1027D00010B9204600F06EF82068016841F0010150
:1027E000016000F0F3FD054620684168C90705D186
:1027F00000F0ECFD401B0B28F6D310E0016821F03F
:102800000201016000F0E2FD054600BF206841685A
:1028100089070DD500F0DAFD401B0B28F6D3606A5E
:10282000052140F400306062012084F82010B0BD22
:10283000217E0268012922F0800208BF80320260F6
:10284000617E0268012922F0400208BF4032026026
:10285000A17E0268012922F0200208BF2032026016
:10286000E17E0268012922F0100218BF10320260D6
:10287000217F0268012922F0080208BF08320260A5
:10288000617F0268012922F0040208BF043202605D
:10289000D4E901C2D4E9033561691A432A431143DB
:1028A000ACF101021143C16100200121606284F892
:1028B0002010B0BD10B586B0006846F60002C4F224
:1028C000000200219042CDE90411CDE902110191ED
:1028D00034D046F20041C4F20001884277D140F280
:1028E000B861C2F200010A6843F64000C4F2020077
:1028F000531C0B6052B900210091016841F0007136
:102900000160016801F000710091009900210091BF
:1029100050F8101C142441F0080140F8101C50F825
:10292000100C032100F008000090009840F20040D5
:10293000C4F2020000F5006035E000BF43F640003D
:10294000C4F202000091016841F0806101600168F9
:1029500001F080610091009940F2B861C2F200017B
:102960000A68531C0B6052B900210091016841F0C4
:1029700000710160016801F000710091009900216F
:10298000009150F8101C402441F0020140F8101C46
:1029900050F8100C602100F002000090009840F206
:1029A0000040C4F202000191022102910021039132
:1029B000032104910921059101A900F029FC204679
:1029C0000521002201F072F9204601F05DF906B000
:1029D00010BD00007047000070B540F25026C2F2F2
:1029E000000606F1080406F11C02002123460546F4
:1029F000FFF728FD42F6B430C2F20000854207D04E
:102A000042F6DC30C2F2000085422BD070BD00BF20
:102A1000F069A0F2052111F1050FA0F2012198BF84
:102A20003060042944D2013842F6AC61C0B2C2F22F
:102A300000014FF4947210FB0210018A32898183E5
:102A400011BA7289090C0182D1BA00EE101AB1894B
:102A5000B27B09BAB8EEC00A090C80ED050A018301
:102A6000827670BDF069A0F20521042970D2358903
:102A7000FB30C0B242F6AC614FF494722DBAC2F290
:102A8000000100FB02F32D0CCC5ACD5210FB0210BA
:102A90007189B27BC9BA00EE101AB189B8EEC00ACA
:102AA00009BA090C848180ED010A0181827270BD2E
:102AB000A0F24111022921D2317A41389B2951D00B
:102AC000A129A3D1B6F90C109FED321A00EE101A0D
:102AD000B8EEC00A80EE010AC0B206EB0010018F0A
:102AE000F289A0F8441002877189727AA0F8401028
:102AF00080F8422080ED0F0A70BD00BF40F2052132
:102B000088427FF483AF3089B6F9581000BA020CBE
:102B1000A6F858207289C1EB1040D2BA00EE102AF4
:102B2000B289B8EEC00A12BA120CA6F86020B27BC5
:102B3000B0F5805FA6F8641086ED170A86F862206B
:102B40001EDD71680844A0F50050706070BD00BFC4
:102B5000B0F5987F18BF70BD2046BDE870400FF0FB
:102B60002BBC00BFC1B2490051FA80F0717AF27BF0
:102B7000B6F80B3006EB400001744382027570BD5D
:102B8000716810F5805FAEBF0844084400F500503E
:102B9000706070BD00007042704700007047000018
:102BA00070470000B0B5044690F8200001281DD100
:102BB000022084F820002068016821F001010160F2
:102BC00000F004FC054600BF20684068C00713D031
:102BD00000F0FCFB401B0B28F6D3606A40F4003089
:102BE0006062052084F820000120B0BD606A40F4D6
:102BF000002060620120B0BD00206062B0BD000016
:102C000070470000704700007047000070470000E8
:102C1000704700007047000070470000002804BFA4
:102C20000120704710B50446407918B10120607149
:102C3000002010BD00202071204600F005F8012082
:102C40006071002010BD000043F63001C4F20201A3
:102C50000068A1F50362904218BF704781B0002060
:102C60000090086840F480500860086800F48050C4
:102C70000090009801B0704770B5866D044600F072
:102C8000A5FB94F83510022928D105462068216C4F
:102C9000026822F016020260426922F0800242615C
:102CA00009B9A16C19B1016821F00801016001683E
:102CB00021F00101016000BF20680068C00715D045
:102CC00000F084FB401B0628F6D32020606503201B
:102CD00084F83500002184F8341070BD80206065D0
:102CE0000120002184F8341070BD00BFE06D3F2149
:102CF00001FA00F0B060012084F8350000200021C6
:102D000084F8341070BD000090F83510022909D104
:102D1000052180F835100068016821F0010101608B
:102D2000002070478021416501207047F0B581B0D7
:102D300004460020009040F2DC00C2F2000002686D
:102D4000D4E9166048F2B51337680821C1F64E334E
:102D500081403942A2FB03250CD0226813685B072F
:102D600008D5136823F004031360B160616D41F06E
:102D70000101616501218140394208D02268526910
:102D8000120604D5B160616D41F002016165042154
:102D90008140394208D022681268920704D5B16098
:102DA000616D41F00401616510218140394217D005
:102DB00020680268120713D5B160026801685203E7
:102DC00008D4C90508D4016821F008010160216C0C
:102DD00021B905E008033FD4216C09B1204688479A
:102DE000E16D202000FA01F23A4241D020680368E8
:102DF000DB063DD5B26094F835300268052B1BD157
:102E000022F016020260426922F080024261226CC6
:102E10000AB9A26C1AB1026822F0080202603F20CF
:102E20008840B060012084F83500216D0020002921
:102E300084F8340052D157E00168520310D4C90518
:102E400012D4016821F010010160012084F83500DE
:102E5000002084F8340007E0A16C0029BED1BFE750
:102E6000080301D4616C00E0E16B09B1204688479A
:102E7000606DC8B3606DC0072ED0052084F83500A2
:102E80002068A90A026822F001020260009A013259
:102E90008A4200921AD80268D20717D0009A0132EB
:102EA0008A42009212D80268D2070FD0009A0132EB
:102EB0008A4200920AD80268D20707D0009A0132EB
:102EC0008A42009202D80268D207DFD1012084F83A
:102ED0003500002084F83400E16C29B1204601B0AF
:102EE000BDE8F040084700BF01B0F0BD2DE9F0415A
:102EF000044600F06BFAECB10546022084F8350078
:102F00000020216884F83400086820F0010008607F
:102F100021680868C00711D000F058FA401B052846
:102F2000F6D9032520230320636584F83550BDE8D6
:102F3000F08100BF0120BDE8F08100BF086848F2C1
:102F40003F02CFF21002D4E9013500EA020C04F18D
:102F50000C0898E8C10143EA0C032B431843D4E959
:102F6000072E304338431043626A40EA0E00042AB9
:102F700040EA08031CD1206BD4E90A2E40EA0E0077
:102F8000184308604869BEF1000F20F0030040EAD2
:102F9000020040F0040C11D0B8F5005F36D0B8F153
:102FA000000F45D1022A46D0012A3BD032B942E077
:102FB0000B60486920F0070040EA020C01F0F800BD
:102FC0004AF6AB221038CAF6AA22A0FB02231A093D
:102FD00046F68243C1F814C0C0F601039A5C40F281
:102FE000FF335F284FF03F0021EA030100FA02F0AF
:102FF00088BF0431C4E9161288600023012500202F
:10300000636584F83550BDE8F08100BF032AD5D848
:10301000012540230120DFE802F0030E030500BF75
:1030200082E700BFAEF1C070B0FA80F0400904E062
:10303000032A04D3C2D1CEF300600028BED00125FC
:1030400040230120636584F83550BDE8F08100001D
:1030500090F834C0BCF1010F04BF0220704770B576
:103060004FF0010C80F834C0D0F858E090F835C02B
:10307000BCF1010F38D14FF0020C80F835C04FF091
:10308000000CC0F854C0D0F800C08468056CC06D56
:10309000DCF80060402C26F48026CCF80060CCF8E8
:1030A00004300B4604BF13460A463F2101FA00F0E4
:1030B000CCF80830CCF80C20CEF80800DCF8000082
:1030C00040F01600CCF800002DB1DCF8000040F014
:1030D0000800CCF80000DCF8000040F00100CCF85B
:1030E0000000002070BD00BF002180F834100220D5
:1030F00070BD0000B0B5044600F068F9054640F226
:10310000B800C2F200000078611C18BF044400BF80
:1031100000F05CF9401BA042FAD3B0BD10B50138F5
:103120001F2800F26780DFE800F0116565656565BE
:103130006547656565656565653165656565656591
:103140006565656565656565655300BF40F25C54FE
:10315000C2F200040120607110F004FA012849D085
:10316000E06804F120010FF043FB206A002808BF4B
:1031700010BD4EF60450CEF200004FF080510160B9
:10318000BFF34F8FBFF36F8F34E000BF09200BF008
:103190001BFE40F25C50C2F20000417841F0010198
:1031A0004170817841F001018170007910B3BDE870
:1031B00010400CF0EDBC00BF0A200BF005FE40F201
:1031C0005C50C2F20000C17841F00101C17010BD35
:1031D00008200BF0F9FD40F25C50C2F200000178CB
:1031E00041F001010170007920B1BDE810400CF000
:1031F000CFBC00BF10BD000043F61441C4F2010172
:103200000A68024214BF08607047FFF787BF0000DA
:103210002DE9F04F82B000F13E4707F1FF778605B8
:1032200046EA972741F60046C4F20206082243F612
:10323000004EB04208BF0722C4F2010E072F38BF6C
:103240003A46002600274FF00008009209E000BF30
:1032500008F101080237B8F1100F06F1040600F07A
:10326000A3800D68012202FA08F415EA0409EFD0E0
:10327000D1F804B003220BF0030CACF10105BA4005
:10328000012D6FEA020A0FD88268CD6802EA0A02AD
:10329000BD402A4382604268A243CBF3001404FA83
:1032A00008F42243426005E0BCF1030F02D14FF065
:1032B000030C1EE0C2688C6802EA0A02BC4022438A
:1032C000BCF1020FC26014D16FF0030202EA58028F
:1032D0000244D2F820C006F01C040F230D69A3405D
:1032E0002CEA0303A5402B431362D1F804B00BF082
:1032F000030C02680CFA07F302EA0A021A431BF4F1
:10330000403F0260A4D0002243F644030192C4F27D
:1033100002031A684FF6084C42F480421A601A6899
:10332000CFF6FF7C02F480420192019A28F003025A
:10333000724452F80C3006F00C050F24AC40A34345
:10334000009C04FA05F52B4342F80C30DEF8082007
:103350004B6842EA090543F60C4CDC0258BF22EAEE
:103360000905CEF80850C4F2010CDCF800209C02DC
:1033700042EA090558BF22EA0905CCF80050DEF8F8
:1033800004209C0342EA090558BF22EA0905CEF849
:103390000450DEF80020DB0342EA090558BF22EAA8
:1033A0000905CEF8005053E702B0BDE8F08F0000E9
:1033B000426902EA0103914341EA03418161704796
:1033C000002A08BF09048161704700004AF62060A6
:1033D000C2F2000000687047002804BF0120704757
:1033E000F0B581B0044690F83D0028B9002084F87B
:1033F0003C00204600F046FB242084F83D00206875
:10340000016821F001010160016841F4004101609F
:10341000016821F40041016001F00AFD636848F28F
:10342000A16CC0F2010C40F60011C0F23D016345F1
:103430003CBF48F28041C0F21E01884202D2012006
:1034400001B0F0BD4DF68361C4F21B31A0FB011247
:103450002168970CD1F804E04FF496762EF03F05E2
:1034600045EA92454D60774348F638160D6AC0F23A
:103470004106A7FB067625F03F07634538BF960C4B
:10348000721C3A430A62CA6948F2A0664CF6FF779A
:10349000C0F20106B34222EA07020BD801385B00F2
:1034A000B0FBF3F001306FF31F30042898BF042005
:1034B0001BE000BFA768013857B119277B43B0FB59
:1034C000F3F001306FF31F3070B100F5804007E07A
:1034D00003EB4303B0FBF3F001306FF31F3018B17F
:1034E00000F5004001E000BF01201043C8610868FA
:1034F000D4E9072320F0C00010431843086088680F
:1035000048F2FF3204F10C0790438CCF184310436C
:10351000A6698860C86820F0FF0038433043C8605F
:10352000086840F00100086000202021206484F831
:103530003D10206384F83E0001B0F0BD2DE9F04756
:1035400084B0984617460E460446FFF73FFF94F8AE
:103550003D10202923D1054620688169890719D5A6
:10356000FFF734FF401B1928F6D9002020212063E3
:1035700084F83D1084F83E00206C04F13C0940F0D2
:10358000200020640220002189F8001004B0BDE86A
:10359000F08700BFA14619F83C1F012904D1022081
:1035A00004B0BDE8F08700BF012289F8002003685D
:1035B000DDE90D1A0C9ADB0703D1036843F0010320
:1035C0000360036823F400630360222084F83D0055
:1035D000402084F83E000020206462626185608D96
:1035E000314620850020CFF6FF70E06220463A4643
:1035F0004346CDE900A503F027FB18B1012004B034
:10360000BDE8F087208DA8B102282BD0012835D144
:1036100021680A6822F480620A60002203924A69E3
:1036200003928A690392039A0A6842F400720A605C
:103630002CE000BF0020039020684169039181695C
:1036400003910399016841F400710160202084F81E
:103650003D00002084F83E00002189F8001004B0ED
:10366000BDE8F08721680A6822F480620A600A686F
:1036700042F400620A600022039202E000210391FA
:1036800021684A6903928969039103990AF1010645
:1036900080B2032818D8022842D0012856D1BAF1A6
:1036A000000F00F0AB802068014651F8142F52063D
:1036B00000F1A8800868C00600F1E280FFF786FEEE
:1036C000401B5045EFD9D0E0BAF1000F10D000BF39
:1036D0002068014651F8142F52060ED40868C0061F
:1036E00000F1CE80FFF772FE401B5045F0D9BCE0E0
:1036F00020684169490640F1B1800069616A08703B
:10370000606A2268411C208D616201382085638DCA
:10371000013B638553695B0740F18080106973E06A
:1037200020684169490747D4002E59D0BAF1000FEB
:1037300000F09980FFF74AFE401B504500F295804B
:10374000206841694907F5D536E000BF2068416926
:1037500049070FD4002E65D0BAF1000F00F0838026
:10376000FFF734FE401B504500F27F80206841691E
:103770004907F5D5016821F4806101600069616A3B
:103780000870606A218D01300139606221852068EE
:10379000618D01396185416949070DD4002E4FD0F3
:1037A000BAF1000F5FD0FFF711FE401B50455CD807
:1037B000206841694907F6D5016841F4007101604C
:1037C0000069616A0870606A2268411C6162218D2B
:1037D00001392185618D013961851169417014E0DC
:1037E00041694907E8D4416949075CBF41695FEA1B
:1037F0004171E1D441694907F2D5DDE720684169AB
:1038000049062BD50069616A0870606A218D013014
:103810006062481E2085618D0139618501047FF455
:1038200037AF13E741694907A4D4416949075CBF31
:1038300041695FEA41719DD441694907F2D599E731
:1038400041694907B8D4416949075CBF41695FEAEA
:103850004171B1D441694907F2D5ADE750F8141F61
:10386000C90601460CD4FFF7B1FD002020212063DA
:1038700084F83D1084F83E00206C40F020000AE0FF
:103880006FF01000086000202021206384F83D10B4
:1038900084F83E00206C20640120002189F800108B
:1038A00004B0BDE8F08700002DE9F04383B09946ED
:1038B00016460F460446FFF789FD94F83D1020296F
:1038C0001ED1054620688169890715D5FFF77EFD61
:1038D000401B1928F6D900202021206384F83D10D0
:1038E00084F83E00216C41F02001216484F83C0002
:1038F000022003B0BDE8F08394F83C10012903D105
:10390000022003B0BDE8F083012284F83C20036864
:10391000DDE90B180A9ADB0703D1036843F00103C2
:103920000360036823F400630360212084F83D00F2
:10393000402084F83E000020206462626185608D32
:10394000394620850020CFF6FF70E06220463246DF
:103950004B46CDE9008503F005FB18B1012003B00B
:10396000BDE8F083208D002850D0206808F10106C2
:10397000014651F8142F12062CD49EB1B8F1000F55
:103980005AD000BF086840055ED4FFF71FFD401BFA
:10399000404556D82068014651F8142F1206F1D53B
:1039A00018E000BF0A6852054ED40A68120611D406
:1039B0000A68520548D40A6812060BD40A685205F0
:1039C00042D40A68120605D40A6852053CD40A6833
:1039D0001206E7D5626A114611F8013B0361238D97
:1039E0006162591E2185678D013F678547697F07A1
:1039F0000AD50F0408D051780161911C6162991EAB
:103A00002185628D013A62850904B1D12046414683
:103A10002A4603F0E1FB38BB2068016841F40071DD
:103A20000160202084F83D00002084F83E0084F8E6
:103A30003C0003B0BDE8F0830868400504D4FFF7FC
:103A4000C5FC202004E000BF6FF480600860042003
:103A500000212022216384F83D2084F83E10226C4E
:103A60001043206484F83C10206C04287FF476AF67
:103A70002068016841F400710160012003B0BDE8D5
:103A8000F08300002DE9F04F87B0006845F600474D
:103A9000C4F20007B84203D007B0BDE8F08F00BF02
:103AA0004FF0000843F63005CDF80880C4F2020557
:103AB000286802AC40F00400286028684FF0120922
:103AC00000F0040002900298CDF8088028684FF0BA
:103AD000010A40F00100286028684FF0030B00F055
:103AE0000100029002984FF400700290042607F53E
:103AF000D6302146CDF80C90CDF810A0CDF814B0FA
:103B00000696FFF785FB4FF4807002A981E8010E4D
:103B100007F5D23021460696FFF77AFBCDF80480F0
:103B2000286940F400002861286900F40000019031
:103B3000019807B0BDE8F08F40F2B8004AF6206166
:103B4000C2F20000C2F2000100780A681044086066
:103B50007047000080B543F60040C4F202000168DF
:103B600041F400710160016841F480610160016805
:103B700041F480710160032000F0C4F80F2000F0D0
:103B800005F800F05FF8002080BD000070B586B039
:103B9000002543F640010195C4F202010A6804467B
:103BA00042F001020A60096801A801F001010191D7
:103BB0000199694601F016F9049E002E18BF0126EE
:103BC00001F036F94DF68361B040C4F21B31A0FB21
:103BD00001014FF0FF3000EB914143F6DC10C2F2DF
:103BE00000004FF0804240F2E733C0E90021C0E915
:103BF00002530561856101F053FE054610B1284668
:103C000006B070BD43F6DC10C2F2000001F0C8FE41
:103C100005460028F3D11C2000F036F80F2C0DD8F3
:103C20001C2021460022002500F040F840F2BC0094
:103C3000C2F200000460284606B070BD0125284687
:103C400006B070BD82B0002043F640010190C4F27E
:103C500002014A6842F480424A604A6802F48042A3
:103C60000192019A00900868002240F0805008609C
:103C700008680F2100F08050009000986FF001005C
:103C800002B000F013B80000002848BF704700F0F1
:103C90001F01012202FA01F11C2202EAD0004EF2B9
:103CA0000012CEF2000281507047000010B54EF6AF
:103CB0000C5CCEF2000CDCF80030C3F3022E8EF068
:103CC0000704042C28BF0424BEF103034FF0FF3E79
:103CD0000EFA04F438BF0023A14399400EFA03F30F
:103CE0009A43114300F00F0200F160430901043AC6
:103CF00003F564436244002848BF02F10C031970C5
:103D000010BD00004EF60C51CEF200010A684FF6CD
:103D1000FF031A4060F30A2242F0806040F0FD7019
:103D200008607047704700000268002051627047C9
:103D30002DE9F041D0F80080D8F8243081B1D8F8CE
:103D40002870B1F1010E03EB174355D05FFA8EF1E5
:103D500004290EF0030C0BD2002700212DE000BF38
:103D600043EA02410020C8F82810BDE8F08100BFF6
:103D70000EF0FC0408F1F405002108F5827600BF7E
:103D800055F8107F41F0020003EB174341F00107A3
:103D9000FFB256F82770C0B256F8200003EB174365
:103DA00003EB104041F00303DBB256F8233004313B
:103DB000CFB2A74200EB1343E2D1BCF1000F1BD0FE
:103DC00008EB8700D0F80401BCF1010F03EB1043AE
:103DD00012D0481CC0B208EB8000D0F80401BCF13E
:103DE000020F03EB104307D0881CC0B208EB800021
:103DF000D0F8040103EB104343EA024008EB8E01C4
:103E0000C1F804010020BDE8F0810000D0F80805E9
:103E100007F04ABD01EBC102D0F8083500EB820083
:103E2000C26C184607F0A8BC01EBC102D0F80835F7
:103E300000EB8200D0F88C22184607F0F7BC000097
:103E4000D0F8080507F032BD10B5044648B2B0F10D
:103E5000FF3F01F00F0000EBC00104EB810205DD24
:103E600002F51F71002382F87D3204E0012302F184
:103E70003C0182F83D3094F8BC240870012A04BF4C
:103E8000022010BD2068012284F8BC2408F092FAB8
:103E9000002084F8BC0410BDB0B54268044601F0AF
:103EA0000F0082423CBF0120B0BD49B2B1F1FF3FDB
:103EB0000ADD00EBC00104EB810202F51F71002353
:103EC00082F87D3209E000BF00EBC00104EB810203
:103ED000012302F13C0182F83D3094F8BC24002516
:103EE000012A8D70087004BF0220B0BD2068012235
:103EF00084F8BC2408F0BEFD284684F8BC54B0BD4C
:103F000001F00F0101EBC10100EB8100D0F89C0230
:103F10007047000070B5064648B2B0F1FF3F01F0AF
:103F20000F0000EBC00107DD06EB810404F51F71F3
:103F3000002584F87D5206E006EB810C01240CF18B
:103F40003C018CF83D404D780870002DCA600B7123
:103F500018BF0881022B04BF0020487196F8BC04EA
:103F6000012804BF022070BD3068012286F8BC24FD
:103F700008F0DEF8002086F8BC0470BD80B501F0C2
:103F80000F0C0CEBCC0100EB810ECEF89432002329
:103F9000CEF89C328EF87D320369CEF88C22012B4C
:103FA0008EF87CC208BFCEF8902200680EF51F7113
:103FB000DAB2BCF1000F03D008F0A6FD002080BDEE
:103FC00008F0ACFC002080BDB0B50446406801F0AC
:103FD0000F05854284BF0120B0BD48B2B0F1FF3F5C
:103FE0000ADD01EBC10004EB800000F51F71002227
:103FF00080F87D2209E000BF05EBC50004EB8000DE
:10400000012200F13C0180F83D2094F8BC0401221B
:1040100001288A700D7004BF0220B0BD206884F8AA
:10402000BC2408F051FD1DB1002084F8BC04B0BDD3
:104030002068217C04F2C44208F0EEFC002084F8E1
:10404000BC04B0BD10B501F00F0C0CEBCC0100EBC3
:10405000810E714601F83CCF8B6100230B6203692E
:1040600001244C70012B0A6108BFCEF85020006873
:10407000DAB2BCF1000F03D008F046FD002010BDFD
:1040800008F04CFC002010BD2DE9F04F89B0D0F8AD
:1040900000A00646504608F029FF18B109B0BDE857
:1040A000F08F00BF306808F04FFF0028F6D0DAF834
:1040B0000808C0F30D213068C6F8FC1408F044FF6E
:1040C00001463068890703D5416901F00201416169
:1040D0000AF50061049108F037FF01463068C9060F
:1040E00008963BD5816921F010018161DAF8204002
:1040F000C4F34340062804F00F0519D0022828D144
:1041000047F6F07014EA000823D005EBC50006EB73
:104110008007D7F88C124FEA18145046224608F050
:1041200017FFD7F88C0200EB1810C7F88C0207E0D5
:1041300006F2C4415046082208F00AFFC4F30A14EC
:1041400005EBC50006EB8000D0F89C122144C0F8B6
:104150009C123068816941F01001816108F0F4FE21
:10416000000340F1F5800898006808F0CBFE0028B5
:1041700000F0EE80064608984FF4306400F2C44127
:1041800000F527784FF0000B079119E00AEB0400C7
:1041900002218160B80642BF0AEB04002021816041
:1041A000B80442BF0AEB04004FF4005181600BF1E8
:1041B000010B760804F1200408F1240800F0C880FF
:1041C000F007F4D008985FFA8BF90068494608F0C8
:1041D000B3FE0746C00763D00AEB040001218160EB
:1041E000089D28682118036C8A682D69012D29D142
:1041F000150735D4950600F1A38012F0280F4FD192
:1042000043F20B05C4F65475AB4202D312F40042DC
:104210002FD158F8042C0969BBF1000F6FF3DF416F
:10422000A2EB0101C8F8001035D1089BD3F8942205
:10423000002A00F08B80D3F88C020844C3F88C026B
:1042400029E000BF43F20B05C4F65475FF35AB42BD
:1042500016D110040DD4900644BF202088601AE0C7
:1042600043F20B00C4F65470834219D312F4004099
:1042700016D04FF400408860380713D440E000BFE8
:10428000BBF1000F07D10899D1F8941219B9002198
:10429000079A08F0C1FB08984946FFF7C5FD00BF23
:1042A00038072DD50AEB040008218160089843F2F5
:1042B0000B020068C4F65472056C20448168954274
:1042C0000AD311F4004107D04FF4004181600898EF
:1042D00000F094FC09E000BF089800F08FFC43F266
:1042E0000B00C4F6547085420AD30898006901286F
:1042F00006D10898079A0068012108F08DFB00BFDD
:10430000F80642BF0AEB040010218160B8077FF570
:1043100041AFDAF81400000604D50499486840F467
:104320008060486018F81D0C01287FF42FAF002032
:1043300008F81D0C0898494600F04AFB26E700BF24
:10434000202088603807ADD4DAE700BF01219FE75D
:10435000DDF820B0CDF80CA0DBF8000008F0F4FD8B
:10436000400340F1D580DBF8000008F0C3FD0028D1
:1043700000F0CE8082460398012700F510660BF20C
:10438000C44000250190029606E000BF5FEA5A0A89
:1043900005F1010500F0BC805FEACA70F6D0DBF8D9
:1043A0000000E9B2079108F0B5FD0446C00725D02A
:1043B000049A05F00F00516B07FA00F021EA0000A3
:1043C000506306EB45108760DBF81000012811D11F
:1043D00005EBC5000BEB8000D0E912121144C1645B
:1043E00045B9DBF8540028B9DBF80000019A012137
:1043F00008F012FB07995846FFF70CFD200742BF53
:1044000006EB451008218160E00642BF06EB45102F
:1044100010218160600642BF06EB4510402181609B
:10442000A00715D50398294608F0F6FC05EBC50052
:104430000BEB800010F83F1F012905D1002101700E
:104440000799584600F0C0FA06EB4510022181603A
:1044500020069BD505EBC5000BEB8002914659F871
:10446000541FC84658F8080F81428FD3DBF800600C
:1044700093465BF8487F0B1ABB4238BF1F4606962F
:1044800006EB4513D3F818C907F1030E1FFA8CF792
:10449000B7EB9E0F28D303F5106102F14C0705918D
:1044A000D9F8001081421FD9DBF80040089A081A99
:1044B000A0423968167C38BF0446DDE90602A3B283
:1044C000009608F06BFE3868D8F800102044386079
:1044D00008190599C8F800008969E21C89B2B1EB96
:1044E000920FDDD2D9F80010DDF820B0029E01272E
:1044F00081423FF64BAF069A05F00F00D2F8341810
:1045000007FA00F021EA0000C2F834083EE700BFD5
:10451000DBF8000008F018FD002823D4DBF80000C9
:10452000DDE9038908F010FD00053ED4DBF800004A
:1045300008F00AFDC00449D5D9F80400102120F084
:104540000100C9F80400DBF8000008F065FCDBF8A6
:104550000400002800F0F680042800F0030C39D293
:104560000021A3E0DDF81090D9F8040020F001004C
:10457000C9F804009BF8F404012807D100208BF847
:10458000F40458460021FFF7CDFB02E0584600F046
:1045900019FBDBF80000DDF80C80416901F00041F7
:1045A000416108F0D1FC0005C0D5D9F80800C0076A
:1045B00002D0584600F04AFBDBF80000416901F4E4
:1045C0000061416108F0C0FCC004B5D4DBF8000014
:1045D000EBE000BF20F0030E4FF6A0564FF6C0559B
:1045E0004FF6E0544FF6006008F5366300214FF6B1
:1045F0007F37CFF6FF76CFF6FF75CFF6FF74CFF695
:10460000FF7000BFA3F5187297609A59043122F425
:1046100000129A5143F8587C53F8602C8E4522F4CE
:10462000001243F8602C53F8602C42F0006243F80B
:10463000602CA3F5107297605A5922F400125A5157
:1046400043F8387C53F8402C22F4001243F8402CF5
:1046500053F8402C42F0006243F8402CA3F5087256
:1046600097601A5922F400121A5143F8187C53F833
:10467000202C22F4001243F8202C53F8202C42F076
:10468000006243F8202CA3F5007297601A5822F4B8
:1046900000121A509F601A6822F400121A601A68F9
:1046A00042F000621A6003F18003ABD1BCF1000F4D
:1046B00048D008F5106000EB41124FF67F334F01F0
:1046C0009360C65908F5306226F40016C65102EB15
:1046D0004116B360D659BCF1010F26F40016D6512D
:1046E000D65946F00066D6512CD04F1C00EB47152A
:1046F0007E01AB60855902EB471725F40015855103
:10470000BB609359BCF1020F23F4001393519359EA
:1047100043F00063935115D0023100EB41174FF67F
:104720007F364B01BE60C75827F40017C75002EB15
:1047300041108660D05820F40010D050D05840F07E
:104740000060D050D9F81C0040F00110C9F81C00DE
:10475000DBF8300040B1D9F8840040F00B00C9F814
:10476000840009F1440008E0D9F8140042F22B015A
:104770000843C9F8140009F1100001680BF2C442A3
:1047800041F00B010160D9F8000020F4FE60C9F887
:104790000000DBF800009BF8101008F03DF9DBF892
:1047A0000000416901F48051416108F0CDFB0146F0
:1047B000DBF8000089041AD507F0FCFCDBF80000E8
:1047C00008F086FBDBF80040CBF80C0000F02AFB79
:1047D0009BF80C200146204608F054FC584600F097
:1047E000DBF9DBF80000416901F40051416108F098
:1047F000ABFB000706D4DBF8000008F0A5FB0006C1
:104800000DD437E0584600F0E1F9DBF800004169CB
:1048100001F00801416108F097FB00062AD5D8F89D
:10482000180020F08000C8F81800DBF80400022807
:1048300020D3012440F2A32505E000BF01348442C7
:1048400005F1240516D21BF805100129F6D104F054
:104850000F0000EBC0000BEB80022006DBF800002D
:1048600002F13C0158BF02F51F7108F045FADBF870
:104870000400E3E7DBF8000008F066FBC00251D457
:10488000DBF8000008F060FB800240F18080DBF87C
:10489000041002292DD308F5326001390BF5297275
:1048A000012303E0013900F1200022D017460668F9
:1048B00012F8245B012DF5D1B6F1FF3FF2DCDBF8F5
:1048C000FC5406F4803605F00105AE42EAD107F843
:1048D000013CD8F8187047F08007C8F81870D8F86D
:1048E00014703F06DED4D9F8040040F40070C9F813
:1048F0000400DBF80000416901F40011416108F097
:1049000023FB400049D55846FFF780FADBF800004A
:10491000416901F08041416108F016FB40077FF5D5
:10492000BDAB41E0DBF80400022825D308F5126492
:104930000BF164050126012705E000BF013787421E
:1049400004F1200418D22946226815F8243B012BD3
:10495000F4D1B2F1FF3FF1DC07F00F0000EBC00033
:1049600001F8016C0BEB8001DBF800003C3108F032
:10497000C3F9DBF80400E1E7DBF80000416901F46A
:104980008011416108F0E0FA80023FF580AFDBF86A
:10499000000008F0D9FA4000B5D4DBF8000008F0B8
:1049A000D3FA40077FF57AABDBF800004468610773
:1049B00004D55846FFF744FADBF80000416821436C
:1049C000416009B0BDE8F08FD0F8080506F0D0BF0F
:1049D000D0F8080506F0E2BF2DE9F04F8BB00028B3
:1049E00000F086800446056890F8BD0428B90020D0
:1049F00084F8BC04204600F08FF8032084F8BD043E
:104A0000E86BC0055CBF00202061206807F07EFFD6
:104A1000206804F11C0A0A90D4E90C5004F1040E39
:104A20009AE8C0079EE80E58CDE9085003A880E830
:104A3000C0030A988DE80058CDF81CA007F0CAFB07
:104A4000002852D120680021002508F0D7FA6168BB
:104A500061B301200023002203EBC30304EB8307AF
:104A600087F83C20D3B20132A7F84430D3B2994240
:104A700087F83D0087F84050C7E912557D65EBD8AF
:104A800000200023002200BF03EBC30304EB8307D5
:104A900087F87C220132D3B2994287F87D0287F8E9
:104AA0008002C7E9A200C7F89402EDD8A068226886
:104AB0000A90D4E90C5004F1140E04F1240AD4E94C
:104AC00003379EE840589AE80007CDE9085002A84D
:104AD00080E8005810460A9ACDE90076CDE90589AC
:104AE000CDF81CA007F0CAFC40B1022084F8BD0438
:104AF000012528460BB0BDE8F08F00BF002501203E
:104B000084F8385084F8BD04206807F0A7FC2846D4
:104B10000BB0BDE8F08F00000068B0F1A04F18BFE7
:104B20007047B0B586B0002543F630040195C4F255
:104B30000204206801A940F001002060206800F014
:104B40000100019001984FF4C05001900220CDE97E
:104B50000205032004900A2005900020C4F2020000
:104B6000FEF756FB6068052140F08000606000950C
:104B70006069002240F480406061606900F4804018
:104B8000009000984320FFF791F84320FFF77CF84E
:104B900006B0BDE8B040704710B50446C06828B103
:104BA000022801D0FDF7EEF8012100E00021D4F841
:104BB000080506F079FFD4F80805BDE8104006F0B6
:104BC00029BF0000D0F8080506F054BFD0F808054A
:104BD00006F05ABF10B5044690F8BC04012804BF83
:104BE000022010BD012084F8BC0484F8381020682D
:104BF00008F036FA002084F8BC0410BDD0F808256F
:104C000000F2C441104606F065BF000010B504462E
:104C100090F8BC04012804BF022010BDA16A2068DE
:104C20000122012984F8BC2406D1A169012903D0FD
:104C3000816B41F48031816308F0E6F8206807F069
:104C4000FDFB002084F8BC0410BD000010B5044634
:104C5000D0F8080506F092FF2068D0F8001E41F059
:104C60000101C0F8001E206A002808BF10BD4EF6E2
:104C70001050CEF20000016841F00601016010BD45
:104C8000002804BF012070472DE9F04143F60808D1
:104C9000C4F202080446D8F8F8030D4600F00700F5
:104CA000884207D288F8F853D8F8F80300F00700D4
:104CB000A84277D12068810717D5410705D5D8F8D4
:104CC000001041F4E051C8F80010010705D5D8F8EC
:104CD000001041F46041C8F80010D8F80010A26834
:104CE00021F0F0011143C8F80010C00740D1D8F8F6
:104CF000F80300F00700A84207D988F8F853D8F85D
:104D0000F80300F00700A8424CD12068410707D5FE
:104D1000D8F80010E26821F4E0511143C8F80010FF
:104D2000000708D5D8F80000216920F4604040EA67
:104D3000C100C8F8000000F0A3F8D8F8001046F24F
:104D4000F872C1F30311C0F60102515C40F2DC02BB
:104D500020FA01F140F2BC00C2F200000068C2F289
:104D600000021160FEF712FF0020BDE8F08100BFD5
:104D70006068811E022907D258F8081C89015CBFAF
:104D80000120BDE8F08111E0012807D158F8081C86
:104D900089035CBF0120BDE8F08107E058F8081CDA
:104DA000890703D40120BDE8F08100BFD8F80010C6
:104DB00021F003010843C8F80000FEF707FB064690
:104DC00041F28837D8F80000616800F00C00B0EBC1
:104DD000810F8CD0FEF7FAFA801BB842F2D903207B
:104DE000BDE8F0810F22026043F60802C4F202021D
:104DF000136803F003034360136803F0F003836058
:104E0000136803F4E053C360D2F800C04FF4E053DA
:104E100003EADC030361D2F8F80300F0070008603E
:104E20007047000040F2DC00C2F2000000687047EA
:104E300040F2DC0043F60801C2F20000C4F20201B5
:104E40000068096846F60802C1F38221C0F6010233
:104E5000515CC8407047000040F2DC0043F6080196
:104E6000C2F20000C4F202010068096846F60802B6
:104E7000C1F34231C0F60102515CC84070470000E6
:104E800010B543F60404C4F20204606800F00C009C
:104E900008280BD0042819BF42F20040C0F2F400E9
:104EA00041F60030C0F2B70010BD00BF2068216895
:104EB0002368490241F60031C0F2B70100F03F0219
:104EC000C3F388105CBF42F20041C0F2F401A1FBC1
:104ED00000010023FBF7FEF921680222C1F3014122
:104EE00002EB4101B0FBF1F010BD0000002804BF4F
:104EF000012070472DE9F04182B00446007843F666
:104F00000006C007C4F202060CD0B06800F00C0026
:104F1000042840F081803068800303D56068002851
:104F200000F06A81207880071BD5B06810F00C0F64
:104F300009D0B06800F00C00082840F08780706845
:104F4000400200F183803068800703D5E0680128C3
:104F500040F052813068216920F0F80040EAC10039
:104F600030602078000713D4207840072AD4A56940
:104F7000002D00F03C81B06800F00C00082840F0E3
:104F8000A180012D40F01081012002B0BDE8F08128
:104F90006069002840F20000C4F2472000F07E80E3
:104FA0000121C0F8801EFEF711FA0546706F8007D8
:104FB000DAD4FEF70BFA401B0228F7D9032002B01F
:104FC000BDE8F081306C5FEAC0080AD4002001908F
:104FD000306C40F080503064306C00F080500190B4
:104FE000019847F20007C4F200073868C00547D4AB
:104FF000386840F480703860FEF7E8F9054600BF75
:105000003868C0053CD4FEF7E1F9401B0228F7D907
:10501000032002B0BDE8F081B06800F00C00082861
:1050200003D1706840023FF576AF6068B0F5803F0D
:1050300007D0B0F5A02F40F09B80306840F480206E
:105040003060306840F4803030609BE0E0680028D9
:105050005CD00020C4F2472001210160FEF7B6F9C0
:10506000054600BF306880073FF574AFFEF7AEF924
:10507000401B0228F6D9032002B0BDE8F08100BF32
:10508000A068012805D0052854D1306F40F00400F5
:105090003067306F40F00100306755E00021C0F804
:1050A000801EFEF793F90546706F80077FF55CAFB1
:1050B000FEF78CF9401B0228F6D9032002B0BDE8A8
:1050C000F08100BF0027C4F2472700203866FEF7B2
:1050D0007DF9022D05460DD13068800140F19080A8
:1050E000FEF774F9401B02284FF00300F4D902B018
:1050F000BDE8F0813068800179D5FEF767F9401B83
:1051000002284FF00300F5D9F1E700BF0020C4F2F8
:10511000472000210160FEF759F9054630688007F5
:105120007FF51FAFFEF752F9401B02284FF0030036
:10513000F4D9DCE7316F002821F001013167316FCC
:1051400021F0040131677DD0FEF740F9054641F2B8
:10515000883700BF306F800700F18680FEF736F990
:10516000401BB842F6D9032002B0BDE8F08100BF71
:105170003168002821F480313160316821F48021C8
:1051800031607BD0FEF722F9054600BF306880030E
:105190003FF5C8AEFEF71AF9401B6428F6D9032084
:1051A00002B0BDE8F08100BF7068E16900F48002E0
:1051B0008A4221D1216A00F03F028A421CD147F67F
:1051C000C071626A0140B1EB821F15D1A16A4FF62E
:1051D000FF73C903994300F44032A1F580318A423C
:1051E0000AD1E16A00F07060B0EB016F04D10020D9
:1051F00002B0BDE8F08100BF012002B0BDE8F0813F
:1052000004F11C052FCD084340EA8210D9034FF664
:10521000FF729143A1F5803140EA05600843706058
:1052200001203866FEF7D2F8044600BF30688001DE
:10523000DDD4FEF7CBF8001B02284FF00300F5D9B0
:1052400055E700BFFEF7C2F8054641F2883700BFB8
:10525000306F800708D5FEF7B9F8401BB8424FF011
:105260000300F5D943E700BFB8F1000F3FF57FAE6B
:10527000306C20F08050306479E600BFFEF7A6F86D
:10528000054600BF306880037FF54CAEFEF79EF800
:10529000401B64284FF00300F4D928E770B538B1FB
:1052A0000446406A30B10020206104F1140007E098
:1052B000012070BD6068B0F5827F03D004F11C004E
:1052C000002101600026A66294F8510020B9204612
:1052D00084F8506000F03CF8022084F8510094E813
:1052E0000F0001F48271056802F4044225F04005C4
:1052F0000560114403F400622369114403F00202C3
:105300006369114403F00102A369E569114403F4E0
:105310000072114405F03802256A114405F080023C
:10532000A56A114305F4005211430160626A042129
:1053300001EA134102F0100211444160C16921F4F5
:105340000061C1610120666584F85100304670BD7E
:105350002DE9F04F85B00446006843F20007C4F21F
:105360000107B84202D005B0BDE8F08F002643F631
:1053700030000096C4F2020041696D4641F480514C
:10538000416141694FF0020901F480510091009997
:10539000009601684FF0010A41F0020101600168C6
:1053A0004FF0030B01F00201009100990096016893
:1053B0004FF0050841F0010101600068294600F046
:1053C0000100009000981820009007F55440CDF897
:1053D0000490CDF808A0CDF80CB0CDF81080FDF702
:1053E00017FF80208DE8010ECDF8108046F240486E
:1053F00007F550402946C4F20208FDF709FF42F6BE
:105400000C45C2F200054FF440304FF0C0674FF436
:105410008069C5E908062846C5E90087C5E902662E
:10542000C5E90496C5E90666FDF760FD002818BFCA
:10543000FCF7A8FCE564AC6342F66C4508F1180083
:10544000C2F200054021C5E9000705F1080080E827
:1054500042024FF40030C5E908062846C5E9056652
:10546000EE61FDF743FD002818BFFCF78BFCA56437
:10547000AC6305B0BDE8F08F2DE9F04383B004467E
:1054800090F85000012803D1022003B0BDE8F0835A
:1054900001201E4615460F4684F85000FDF796FF82
:1054A00094F85110814601290DD06068B0F5827FD3
:1054B00040F0A28004294FF0020040F05E81A16814
:1054C000002940F05A81002F4FF0010018BF002D35
:1054D00000F05381002E00F0508194F8510000211B
:1054E00004281CBF052084F851006165A563E68788
:1054F000A6872763E6862068A68621646164016822
:10550000490603D4016841F0400101606168731EDF
:10551000E268B1FA81F1B3FA83F3DDF82880490932
:105520005B09B2F5006F41EA030167D131B137F889
:10553000021BC1602763E08E0138E086012518F167
:10554000010032D102E000BFFDF740FFE08E18B944
:10555000E08F002800F0BA802068816889070CD5A8
:10556000E18E51B1012D08D1216B002531F8022BBC
:10557000C2602163E18E0139E1868168C907E3D009
:10558000E18F0029E0D0C068A16B012521F8020B52
:10559000A163E08F0138E087D6E700BFFDF716FF73
:1055A000A0EB0900404580F0E780E08E18B9E08F5D
:1055B000002800F08B802068816889070CD5E18E77
:1055C00051B1012D08D1216B002531F8022BC260A9
:1055D0002163E18E0139E1868168C907DED0E18F60
:1055E0000029DBD0C068A16B012521F8020BA16363
:1055F000E08F0138E087D1E70220BEE039B1397889
:105600000173206B01302063E08E0138E0860125B4
:1056100018F1010032D101E0FDF7D8FEE08E10B99B
:10562000E08F002852D02068816889070ED5E18E6E
:1056300061B1012D0AD1216B002509780173216B1D
:10564000206801312163E18E0139E1868168C90753
:10565000E2D0E18F0029DFD0C068A16B012508707E
:10566000A06B0130A063E08F0138E087D4E700BF72
:10567000FDF7ACFEA0EB090040457DD2E08E08B9F5
:10568000E08F18B32068816889070ED5E18E61B17B
:10569000012D0AD1216B002509780173216B206847
:1056A00001312163E18E0139E1868168C907DFD0CC
:1056B000E18F0029DCD0C068A16B01250870A06BC8
:1056C0000130A063E08F0138E087D1E740F2DC00D1
:1056D000C2F20000006849F68171C1F25E61A0FB70
:1056E0000101480D4FF47A71484302906068B0F5AB
:1056F000827F0FD12046802142464B4604F0DCFADF
:1057000060B3606D40F0200060652020606501207E
:1057100033E000BF029808B3029801380290206875
:10572000806800061AD50298C0B10298013802902C
:1057300020688068000611D5029878B10298013877
:10574000029020688068000608D5029830B102985F
:1057500001380290206880680006DBD4A068002829
:105760004FF0000009D101902168CA680192896850
:105770000191019901E000BF0320012184F851103B
:10578000002184F8501003B0BDE8F083704700009A
:105790007047000090F83C20012A04BF02207047A7
:1057A000B0B501F108053CCDD1E900CE23F47C531E
:1057B00022F470521A432EF4F0431A432CF4E043BF
:1057C0001A4324F4C0431A432A43C96922F480428D
:1057D000036811435964002180F83C10BDE8B040D3
:1057E0000846704790F83C20012A4FF0020254D03E
:1057F00010B580F83D200268D2F804E0D2F808C065
:105800000C682EF07003234341F2FF74C4F20004CD
:10581000A24253600EDC40F2FF73C4F200039A42CE
:1058200016DCB2F1804F2BD040F20043C4F20003EB
:1058300024E000BF40F2FF33C4F201039A4213DCBC
:1058400041F60003C4F200039A4219D0002313E08A
:1058500040F60003C4F200039A4211D040F6004320
:10586000C4F200030AE000BF44F20003C4F20103E3
:105870009A4205D040F20043C4F201039A4204D197
:1058800049682CF08003194391600121002280F8BF
:105890003D1080F83C20BDE81040104670470000E5
:1058A000002804BF0120704710B5044690F83D0061
:1058B00028B9002084F83C00204600F01FF80220A0
:1058C00084F83D002068211D04F080FC012084F84C
:1058D000460084F83E0084F83F0084F8400084F8D5
:1058E000410084F8420084F8430084F8440084F8BE
:1058F000450084F83D00002010BD000080B584B054
:10590000006844F20041C4F2010188421CD042F216
:105910000001C4F20001884228D040F20041C4F2E4
:10592000000188421FD10020039043F64000C4F2DA
:105930000200016841F002010160006800F002000D
:105940000390039804B080BD0020029043F640000D
:10595000C4F20200416841F400314160406800F443
:1059600000300290029804B080BD00BF002001907A
:1059700043F64000C4F202000168002241F4807145
:1059800001600068052100F48070019001982D20CD
:10599000FEF78CF92D2004B0BDE88040FEF774B905
:1059A00090F83D1001291CBF01207047022180F8AA
:1059B0003D10006841F2FF72C168C4F200029042DB
:1059C00041F00101C1600DDC40F2FF71C4F2000141
:1059D000884215DCB0F1804F2AD040F20041C4F279
:1059E000000123E040F2FF31C4F20101884213DCE0
:1059F00041F60001C4F20001884219D0002113E0F1
:105A000040F60001C4F20001884211D040F6004186
:105A1000C4F200010AE000BF44F20001C4F2010137
:105A2000884205D040F20041C4F20101884206D10B
:105A3000816801F00701062904BF00207047016852
:105A400041F00101016000207047000090F83C2007
:105A5000012A4FF0020200F0C58080B580F83D2099
:105A6000D0F800C04FF67772DCF8083023EA020263
:105A7000CCF808200B684F2B28DC1F2B44DD202B93
:105A800045D0302B43D0402B40F0AE80D1F804E01D
:105A9000C968DCF82030DCF8202022F00102CCF8C4
:105AA0002020DCF8182022F0F00242EA011123F055
:105AB0000A0242EA0E02CCF81810CCF82020DCF8DA
:105AC000081041F0470121F0300180E06F2B27DD05
:105AD000B3F5005F48D0B3F5805F7AD0702B40F00B
